{
  "_format": "hh-sol-artifact-1",
  "contractName": "CryptoDevsNFT",
  "sourceName": "contracts/NFT/CryptoDevsNFT.sol",
  "abi": [
    {
      "inputs": [
        {
          "internalType": "string",
          "name": "baseURI",
          "type": "string"
        },
        {
          "internalType": "address",
          "name": "whitelistContract",
          "type": "address"
        }
      ],
      "stateMutability": "nonpayable",
      "type": "constructor"
    },
    {
      "anonymous": false,
      "inputs": [
        {
          "indexed": true,
          "internalType": "address",
          "name": "owner",
          "type": "address"
        },
        {
          "indexed": true,
          "internalType": "address",
          "name": "approved",
          "type": "address"
        },
        {
          "indexed": true,
          "internalType": "uint256",
          "name": "tokenId",
          "type": "uint256"
        }
      ],
      "name": "Approval",
      "type": "event"
    },
    {
      "anonymous": false,
      "inputs": [
        {
          "indexed": true,
          "internalType": "address",
          "name": "owner",
          "type": "address"
        },
        {
          "indexed": true,
          "internalType": "address",
          "name": "operator",
          "type": "address"
        },
        {
          "indexed": false,
          "internalType": "bool",
          "name": "approved",
          "type": "bool"
        }
      ],
      "name": "ApprovalForAll",
      "type": "event"
    },
    {
      "anonymous": false,
      "inputs": [
        {
          "indexed": true,
          "internalType": "address",
          "name": "previousOwner",
          "type": "address"
        },
        {
          "indexed": true,
          "internalType": "address",
          "name": "newOwner",
          "type": "address"
        }
      ],
      "name": "OwnershipTransferred",
      "type": "event"
    },
    {
      "anonymous": false,
      "inputs": [
        {
          "indexed": true,
          "internalType": "address",
          "name": "from",
          "type": "address"
        },
        {
          "indexed": true,
          "internalType": "address",
          "name": "to",
          "type": "address"
        },
        {
          "indexed": true,
          "internalType": "uint256",
          "name": "tokenId",
          "type": "uint256"
        }
      ],
      "name": "Transfer",
      "type": "event"
    },
    {
      "inputs": [],
      "name": "_paused",
      "outputs": [
        {
          "internalType": "bool",
          "name": "",
          "type": "bool"
        }
      ],
      "stateMutability": "view",
      "type": "function"
    },
    {
      "inputs": [],
      "name": "_price",
      "outputs": [
        {
          "internalType": "uint256",
          "name": "",
          "type": "uint256"
        }
      ],
      "stateMutability": "view",
      "type": "function"
    },
    {
      "inputs": [
        {
          "internalType": "address",
          "name": "to",
          "type": "address"
        },
        {
          "internalType": "uint256",
          "name": "tokenId",
          "type": "uint256"
        }
      ],
      "name": "approve",
      "outputs": [],
      "stateMutability": "nonpayable",
      "type": "function"
    },
    {
      "inputs": [
        {
          "internalType": "address",
          "name": "owner",
          "type": "address"
        }
      ],
      "name": "balanceOf",
      "outputs": [
        {
          "internalType": "uint256",
          "name": "",
          "type": "uint256"
        }
      ],
      "stateMutability": "view",
      "type": "function"
    },
    {
      "inputs": [
        {
          "internalType": "uint256",
          "name": "tokenId",
          "type": "uint256"
        }
      ],
      "name": "getApproved",
      "outputs": [
        {
          "internalType": "address",
          "name": "",
          "type": "address"
        }
      ],
      "stateMutability": "view",
      "type": "function"
    },
    {
      "inputs": [
        {
          "internalType": "address",
          "name": "owner",
          "type": "address"
        },
        {
          "internalType": "address",
          "name": "operator",
          "type": "address"
        }
      ],
      "name": "isApprovedForAll",
      "outputs": [
        {
          "internalType": "bool",
          "name": "",
          "type": "bool"
        }
      ],
      "stateMutability": "view",
      "type": "function"
    },
    {
      "inputs": [],
      "name": "maxTokenIds",
      "outputs": [
        {
          "internalType": "uint256",
          "name": "",
          "type": "uint256"
        }
      ],
      "stateMutability": "view",
      "type": "function"
    },
    {
      "inputs": [],
      "name": "mint",
      "outputs": [],
      "stateMutability": "payable",
      "type": "function"
    },
    {
      "inputs": [],
      "name": "name",
      "outputs": [
        {
          "internalType": "string",
          "name": "",
          "type": "string"
        }
      ],
      "stateMutability": "view",
      "type": "function"
    },
    {
      "inputs": [],
      "name": "owner",
      "outputs": [
        {
          "internalType": "address",
          "name": "",
          "type": "address"
        }
      ],
      "stateMutability": "view",
      "type": "function"
    },
    {
      "inputs": [
        {
          "internalType": "uint256",
          "name": "tokenId",
          "type": "uint256"
        }
      ],
      "name": "ownerOf",
      "outputs": [
        {
          "internalType": "address",
          "name": "",
          "type": "address"
        }
      ],
      "stateMutability": "view",
      "type": "function"
    },
    {
      "inputs": [],
      "name": "presaleEnded",
      "outputs": [
        {
          "internalType": "uint256",
          "name": "",
          "type": "uint256"
        }
      ],
      "stateMutability": "view",
      "type": "function"
    },
    {
      "inputs": [],
      "name": "presaleMint",
      "outputs": [],
      "stateMutability": "payable",
      "type": "function"
    },
    {
      "inputs": [],
      "name": "presaleStarted",
      "outputs": [
        {
          "internalType": "bool",
          "name": "",
          "type": "bool"
        }
      ],
      "stateMutability": "view",
      "type": "function"
    },
    {
      "inputs": [],
      "name": "renounceOwnership",
      "outputs": [],
      "stateMutability": "nonpayable",
      "type": "function"
    },
    {
      "inputs": [
        {
          "internalType": "address",
          "name": "from",
          "type": "address"
        },
        {
          "internalType": "address",
          "name": "to",
          "type": "address"
        },
        {
          "internalType": "uint256",
          "name": "tokenId",
          "type": "uint256"
        }
      ],
      "name": "safeTransferFrom",
      "outputs": [],
      "stateMutability": "nonpayable",
      "type": "function"
    },
    {
      "inputs": [
        {
          "internalType": "address",
          "name": "from",
          "type": "address"
        },
        {
          "internalType": "address",
          "name": "to",
          "type": "address"
        },
        {
          "internalType": "uint256",
          "name": "tokenId",
          "type": "uint256"
        },
        {
          "internalType": "bytes",
          "name": "_data",
          "type": "bytes"
        }
      ],
      "name": "safeTransferFrom",
      "outputs": [],
      "stateMutability": "nonpayable",
      "type": "function"
    },
    {
      "inputs": [
        {
          "internalType": "address",
          "name": "operator",
          "type": "address"
        },
        {
          "internalType": "bool",
          "name": "approved",
          "type": "bool"
        }
      ],
      "name": "setApprovalForAll",
      "outputs": [],
      "stateMutability": "nonpayable",
      "type": "function"
    },
    {
      "inputs": [
        {
          "internalType": "bool",
          "name": "val",
          "type": "bool"
        }
      ],
      "name": "setPaused",
      "outputs": [],
      "stateMutability": "nonpayable",
      "type": "function"
    },
    {
      "inputs": [],
      "name": "startPresale",
      "outputs": [],
      "stateMutability": "nonpayable",
      "type": "function"
    },
    {
      "inputs": [
        {
          "internalType": "bytes4",
          "name": "interfaceId",
          "type": "bytes4"
        }
      ],
      "name": "supportsInterface",
      "outputs": [
        {
          "internalType": "bool",
          "name": "",
          "type": "bool"
        }
      ],
      "stateMutability": "view",
      "type": "function"
    },
    {
      "inputs": [],
      "name": "symbol",
      "outputs": [
        {
          "internalType": "string",
          "name": "",
          "type": "string"
        }
      ],
      "stateMutability": "view",
      "type": "function"
    },
    {
      "inputs": [
        {
          "internalType": "uint256",
          "name": "index",
          "type": "uint256"
        }
      ],
      "name": "tokenByIndex",
      "outputs": [
        {
          "internalType": "uint256",
          "name": "",
          "type": "uint256"
        }
      ],
      "stateMutability": "view",
      "type": "function"
    },
    {
      "inputs": [],
      "name": "tokenIds",
      "outputs": [
        {
          "internalType": "uint256",
          "name": "",
          "type": "uint256"
        }
      ],
      "stateMutability": "view",
      "type": "function"
    },
    {
      "inputs": [
        {
          "internalType": "address",
          "name": "owner",
          "type": "address"
        },
        {
          "internalType": "uint256",
          "name": "index",
          "type": "uint256"
        }
      ],
      "name": "tokenOfOwnerByIndex",
      "outputs": [
        {
          "internalType": "uint256",
          "name": "",
          "type": "uint256"
        }
      ],
      "stateMutability": "view",
      "type": "function"
    },
    {
      "inputs": [
        {
          "internalType": "uint256",
          "name": "tokenId",
          "type": "uint256"
        }
      ],
      "name": "tokenURI",
      "outputs": [
        {
          "internalType": "string",
          "name": "",
          "type": "string"
        }
      ],
      "stateMutability": "view",
      "type": "function"
    },
    {
      "inputs": [],
      "name": "totalSupply",
      "outputs": [
        {
          "internalType": "uint256",
          "name": "",
          "type": "uint256"
        }
      ],
      "stateMutability": "view",
      "type": "function"
    },
    {
      "inputs": [
        {
          "internalType": "address",
          "name": "from",
          "type": "address"
        },
        {
          "internalType": "address",
          "name": "to",
          "type": "address"
        },
        {
          "internalType": "uint256",
          "name": "tokenId",
          "type": "uint256"
        }
      ],
      "name": "transferFrom",
      "outputs": [],
      "stateMutability": "nonpayable",
      "type": "function"
    },
    {
      "inputs": [
        {
          "internalType": "address",
          "name": "newOwner",
          "type": "address"
        }
      ],
      "name": "transferOwnership",
      "outputs": [],
      "stateMutability": "nonpayable",
      "type": "function"
    },
    {
      "inputs": [],
      "name": "withdraw",
      "outputs": [],
      "stateMutability": "nonpayable",
      "type": "function"
    }
  ],
  "bytecode": "0x6080604052662386f26fc10000600c556014600e553480156200002157600080fd5b506040516200467c3803806200467c8339818101604052810190620000479190620004e9565b6040518060400160405280600b81526020017f43727970746f20446576730000000000000000000000000000000000000000008152506040518060400160405280600281526020017f43440000000000000000000000000000000000000000000000000000000000008152508160009080519060200190620000cb92919062000237565b508060019080519060200190620000e492919062000237565b50505062000107620000fb6200016960201b60201c565b6200017160201b60201c565b81600b90805190602001906200011f92919062000237565b5080601060006101000a81548173ffffffffffffffffffffffffffffffffffffffff021916908373ffffffffffffffffffffffffffffffffffffffff1602179055505050620005b4565b600033905090565b6000600a60009054906101000a900473ffffffffffffffffffffffffffffffffffffffff16905081600a60006101000a81548173ffffffffffffffffffffffffffffffffffffffff021916908373ffffffffffffffffffffffffffffffffffffffff1602179055508173ffffffffffffffffffffffffffffffffffffffff168173ffffffffffffffffffffffffffffffffffffffff167f8be0079c531659141344cd1fd0a4f28419497f9722a3daafe3b4186f6b6457e060405160405180910390a35050565b82805462000245906200057e565b90600052602060002090601f016020900481019282620002695760008555620002b5565b82601f106200028457805160ff1916838001178555620002b5565b82800160010185558215620002b5579182015b82811115620002b457825182559160200191906001019062000297565b5b509050620002c49190620002c8565b5090565b5b80821115620002e3576000816000905550600101620002c9565b5090565b6000604051905090565b600080fd5b600080fd5b600080fd5b600080fd5b6000601f19601f8301169050919050565b7f4e487b7100000000000000000000000000000000000000000000000000000000600052604160045260246000fd5b620003508262000305565b810181811067ffffffffffffffff8211171562000372576200037162000316565b5b80604052505050565b600062000387620002e7565b905062000395828262000345565b919050565b600067ffffffffffffffff821115620003b857620003b762000316565b5b620003c38262000305565b9050602081019050919050565b60005b83811015620003f0578082015181840152602081019050620003d3565b8381111562000400576000848401525b50505050565b60006200041d62000417846200039a565b6200037b565b9050828152602081018484840111156200043c576200043b62000300565b5b62000449848285620003d0565b509392505050565b600082601f830112620004695762000468620002fb565b5b81516200047b84826020860162000406565b91505092915050565b600073ffffffffffffffffffffffffffffffffffffffff82169050919050565b6000620004b18262000484565b9050919050565b620004c381620004a4565b8114620004cf57600080fd5b50565b600081519050620004e381620004b8565b92915050565b60008060408385031215620005035762000502620002f1565b5b600083015167ffffffffffffffff811115620005245762000523620002f6565b5b620005328582860162000451565b92505060206200054585828601620004d2565b9150509250929050565b7f4e487b7100000000000000000000000000000000000000000000000000000000600052602260045260246000fd5b600060028204905060018216806200059757607f821691505b60208210811415620005ae57620005ad6200054f565b5b50919050565b6140b880620005c46000396000f3fe6080604052600436106101cd5760003560e01c80634f6ccce7116100f75780638da5cb5b11610095578063c87b56dd11610064578063c87b56dd14610612578063e580b2b01461064f578063e985e9c51461067a578063f2fde38b146106b7576101cd565b80638da5cb5b1461056a57806395d89b4114610595578063a22cb465146105c0578063b88d4fde146105e9576101cd565b80636352211e116100d15780636352211e146104ae57806370a08231146104eb578063714cff5614610528578063715018a614610553576101cd565b80634f6ccce71461043c57806359533d6c146104795780635f76962114610483576101cd565b806316c38b3c1161016f57806323b872dd1161013e57806323b872dd146103965780632f745c59146103bf5780633ccfd60b146103fc57806342842e0e14610413576101cd565b806316c38b3c146102ec57806316c61ccc1461031557806318160ddd14610340578063235b6ea11461036b576101cd565b806306fdde03116101ab57806306fdde0314610251578063081812fc1461027c578063095ea7b3146102b95780631249c58b146102e2576101cd565b806301ffc9a7146101d257806304549d6f1461020f57806304c98b2b1461023a575b600080fd5b3480156101de57600080fd5b506101f960048036038101906101f491906129af565b6106e0565b60405161020691906129f7565b60405180910390f35b34801561021b57600080fd5b5061022461075a565b60405161023191906129f7565b60405180910390f35b34801561024657600080fd5b5061024f61076d565b005b34801561025d57600080fd5b5061026661081a565b6040516102739190612aab565b60405180910390f35b34801561028857600080fd5b506102a3600480360381019061029e9190612b03565b6108ac565b6040516102b09190612b71565b60405180910390f35b3480156102c557600080fd5b506102e060048036038101906102db9190612bb8565b610931565b005b6102ea610a49565b005b3480156102f857600080fd5b50610313600480360381019061030e9190612c24565b610ba9565b005b34801561032157600080fd5b5061032a610c42565b60405161033791906129f7565b60405180910390f35b34801561034c57600080fd5b50610355610c55565b6040516103629190612c60565b60405180910390f35b34801561037757600080fd5b50610380610c62565b60405161038d9190612c60565b60405180910390f35b3480156103a257600080fd5b506103bd60048036038101906103b89190612c7b565b610c68565b005b3480156103cb57600080fd5b506103e660048036038101906103e19190612bb8565b610cc8565b6040516103f39190612c60565b60405180910390f35b34801561040857600080fd5b50610411610d6d565b005b34801561041f57600080fd5b5061043a60048036038101906104359190612c7b565b610eab565b005b34801561044857600080fd5b50610463600480360381019061045e9190612b03565b610ecb565b6040516104709190612c60565b60405180910390f35b610481610f3c565b005b34801561048f57600080fd5b50610498611176565b6040516104a59190612c60565b60405180910390f35b3480156104ba57600080fd5b506104d560048036038101906104d09190612b03565b61117c565b6040516104e29190612b71565b60405180910390f35b3480156104f757600080fd5b50610512600480360381019061050d9190612cce565b61122e565b60405161051f9190612c60565b60405180910390f35b34801561053457600080fd5b5061053d6112e6565b60405161054a9190612c60565b60405180910390f35b34801561055f57600080fd5b506105686112ec565b005b34801561057657600080fd5b5061057f611374565b60405161058c9190612b71565b60405180910390f35b3480156105a157600080fd5b506105aa61139e565b6040516105b79190612aab565b60405180910390f35b3480156105cc57600080fd5b506105e760048036038101906105e29190612cfb565b611430565b005b3480156105f557600080fd5b50610610600480360381019061060b9190612e70565b611446565b005b34801561061e57600080fd5b5061063960048036038101906106349190612b03565b6114a8565b6040516106469190612aab565b60405180910390f35b34801561065b57600080fd5b5061066461154f565b6040516106719190612c60565b60405180910390f35b34801561068657600080fd5b506106a1600480360381019061069c9190612ef3565b611555565b6040516106ae91906129f7565b60405180910390f35b3480156106c357600080fd5b506106de60048036038101906106d99190612cce565b6115e9565b005b60007f780e9d63000000000000000000000000000000000000000000000000000000007bffffffffffffffffffffffffffffffffffffffffffffffffffffffff1916827bffffffffffffffffffffffffffffffffffffffffffffffffffffffff191614806107535750610752826116e1565b5b9050919050565b601060149054906101000a900460ff1681565b6107756117c3565b73ffffffffffffffffffffffffffffffffffffffff16610793611374565b73ffffffffffffffffffffffffffffffffffffffff16146107e9576040517f08c379a00000000000000000000000000000000000000000000000000000000081526004016107e090612f7f565b60405180910390fd5b6001601060146101000a81548160ff02191690831515021790555061012c426108129190612fce565b601181905550565b60606000805461082990613053565b80601f016020809104026020016040519081016040528092919081815260200182805461085590613053565b80156108a25780601f10610877576101008083540402835291602001916108a2565b820191906000526020600020905b81548152906001019060200180831161088557829003601f168201915b5050505050905090565b60006108b7826117cb565b6108f6576040517f08c379a00000000000000000000000000000000000000000000000000000000081526004016108ed906130f7565b60405180910390fd5b6004600083815260200190815260200160002060009054906101000a900473ffffffffffffffffffffffffffffffffffffffff169050919050565b600061093c8261117c565b90508073ffffffffffffffffffffffffffffffffffffffff168373ffffffffffffffffffffffffffffffffffffffff1614156109ad576040517f08c379a00000000000000000000000000000000000000000000000000000000081526004016109a490613189565b60405180910390fd5b8073ffffffffffffffffffffffffffffffffffffffff166109cc6117c3565b73ffffffffffffffffffffffffffffffffffffffff1614806109fb57506109fa816109f56117c3565b611555565b5b610a3a576040517f08c379a0000000000000000000000000000000000000000000000000000000008152600401610a319061321b565b60405180910390fd5b610a448383611837565b505050565b600d60009054906101000a900460ff1615610a99576040517f08c379a0000000000000000000000000000000000000000000000000000000008152600401610a9090613287565b60405180910390fd5b601060149054906101000a900460ff168015610ab757506011544210155b610af6576040517f08c379a0000000000000000000000000000000000000000000000000000000008152600401610aed906132f3565b60405180910390fd5b600e54600f5410610b3c576040517f08c379a0000000000000000000000000000000000000000000000000000000008152600401610b339061335f565b60405180910390fd5b600c54341015610b81576040517f08c379a0000000000000000000000000000000000000000000000000000000008152600401610b78906133cb565b60405180910390fd5b6001600f6000828254610b949190612fce565b92505081905550610ba733600f546118f0565b565b610bb16117c3565b73ffffffffffffffffffffffffffffffffffffffff16610bcf611374565b73ffffffffffffffffffffffffffffffffffffffff1614610c25576040517f08c379a0000000000000000000000000000000000000000000000000000000008152600401610c1c90612f7f565b60405180910390fd5b80600d60006101000a81548160ff02191690831515021790555050565b600d60009054906101000a900460ff1681565b6000600880549050905090565b600c5481565b610c79610c736117c3565b8261190e565b610cb8576040517f08c379a0000000000000000000000000000000000000000000000000000000008152600401610caf9061345d565b60405180910390fd5b610cc38383836119ec565b505050565b6000610cd38361122e565b8210610d14576040517f08c379a0000000000000000000000000000000000000000000000000000000008152600401610d0b906134ef565b60405180910390fd5b600660008473ffffffffffffffffffffffffffffffffffffffff1673ffffffffffffffffffffffffffffffffffffffff168152602001908152602001600020600083815260200190815260200160002054905092915050565b610d756117c3565b73ffffffffffffffffffffffffffffffffffffffff16610d93611374565b73ffffffffffffffffffffffffffffffffffffffff1614610de9576040517f08c379a0000000000000000000000000000000000000000000000000000000008152600401610de090612f7f565b60405180910390fd5b6000610df3611374565b9050600047905060008273ffffffffffffffffffffffffffffffffffffffff1682604051610e2090613540565b60006040518083038185875af1925050503d8060008114610e5d576040519150601f19603f3d011682016040523d82523d6000602084013e610e62565b606091505b5050905080610ea6576040517f08c379a0000000000000000000000000000000000000000000000000000000008152600401610e9d906135a1565b60405180910390fd5b505050565b610ec683838360405180602001604052806000815250611446565b505050565b6000610ed5610c55565b8210610f16576040517f08c379a0000000000000000000000000000000000000000000000000000000008152600401610f0d90613633565b60405180910390fd5b60088281548110610f2a57610f29613653565b5b90600052602060002001549050919050565b600d60009054906101000a900460ff1615610f8c576040517f08c379a0000000000000000000000000000000000000000000000000000000008152600401610f8390613287565b60405180910390fd5b601060149054906101000a900460ff168015610fa9575060115442105b610fe8576040517f08c379a0000000000000000000000000000000000000000000000000000000008152600401610fdf906136ce565b60405180910390fd5b601060009054906101000a900473ffffffffffffffffffffffffffffffffffffffff1673ffffffffffffffffffffffffffffffffffffffff166306c933d8336040518263ffffffff1660e01b81526004016110439190612b71565b602060405180830381865afa158015611060573d6000803e3d6000fd5b505050506040513d601f19601f820116820180604052508101906110849190613703565b6110c3576040517f08c379a00000000000000000000000000000000000000000000000000000000081526004016110ba9061377c565b60405180910390fd5b600e54600f5410611109576040517f08c379a00000000000000000000000000000000000000000000000000000000081526004016111009061380e565b60405180910390fd5b600c5434101561114e576040517f08c379a0000000000000000000000000000000000000000000000000000000008152600401611145906133cb565b60405180910390fd5b6001600f60008282546111619190612fce565b9250508190555061117433600f546118f0565b565b600e5481565b6000806002600084815260200190815260200160002060009054906101000a900473ffffffffffffffffffffffffffffffffffffffff169050600073ffffffffffffffffffffffffffffffffffffffff168173ffffffffffffffffffffffffffffffffffffffff161415611225576040517f08c379a000000000000000000000000000000000000000000000000000000000815260040161121c906138a0565b60405180910390fd5b80915050919050565b60008073ffffffffffffffffffffffffffffffffffffffff168273ffffffffffffffffffffffffffffffffffffffff16141561129f576040517f08c379a000000000000000000000000000000000000000000000000000000000815260040161129690613932565b60405180910390fd5b600360008373ffffffffffffffffffffffffffffffffffffffff1673ffffffffffffffffffffffffffffffffffffffff168152602001908152602001600020549050919050565b600f5481565b6112f46117c3565b73ffffffffffffffffffffffffffffffffffffffff16611312611374565b73ffffffffffffffffffffffffffffffffffffffff1614611368576040517f08c379a000000000000000000000000000000000000000000000000000000000815260040161135f90612f7f565b60405180910390fd5b6113726000611c53565b565b6000600a60009054906101000a900473ffffffffffffffffffffffffffffffffffffffff16905090565b6060600180546113ad90613053565b80601f01602080910402602001604051908101604052809291908181526020018280546113d990613053565b80156114265780601f106113fb57610100808354040283529160200191611426565b820191906000526020600020905b81548152906001019060200180831161140957829003601f168201915b5050505050905090565b61144261143b6117c3565b8383611d19565b5050565b6114576114516117c3565b8361190e565b611496576040517f08c379a000000000000000000000000000000000000000000000000000000000815260040161148d9061345d565b60405180910390fd5b6114a284848484611e86565b50505050565b60606114b3826117cb565b6114f2576040517f08c379a00000000000000000000000000000000000000000000000000000000081526004016114e9906139c4565b60405180910390fd5b60006114fc611ee2565b9050600081511161151c5760405180602001604052806000815250611547565b8061152684611f74565b604051602001611537929190613a20565b6040516020818303038152906040525b915050919050565b60115481565b6000600560008473ffffffffffffffffffffffffffffffffffffffff1673ffffffffffffffffffffffffffffffffffffffff16815260200190815260200160002060008373ffffffffffffffffffffffffffffffffffffffff1673ffffffffffffffffffffffffffffffffffffffff16815260200190815260200160002060009054906101000a900460ff16905092915050565b6115f16117c3565b73ffffffffffffffffffffffffffffffffffffffff1661160f611374565b73ffffffffffffffffffffffffffffffffffffffff1614611665576040517f08c379a000000000000000000000000000000000000000000000000000000000815260040161165c90612f7f565b60405180910390fd5b600073ffffffffffffffffffffffffffffffffffffffff168173ffffffffffffffffffffffffffffffffffffffff1614156116d5576040517f08c379a00000000000000000000000000000000000000000000000000000000081526004016116cc90613ab6565b60405180910390fd5b6116de81611c53565b50565b60007f80ac58cd000000000000000000000000000000000000000000000000000000007bffffffffffffffffffffffffffffffffffffffffffffffffffffffff1916827bffffffffffffffffffffffffffffffffffffffffffffffffffffffff191614806117ac57507f5b5e139f000000000000000000000000000000000000000000000000000000007bffffffffffffffffffffffffffffffffffffffffffffffffffffffff1916827bffffffffffffffffffffffffffffffffffffffffffffffffffffffff1916145b806117bc57506117bb826120d5565b5b9050919050565b600033905090565b60008073ffffffffffffffffffffffffffffffffffffffff166002600084815260200190815260200160002060009054906101000a900473ffffffffffffffffffffffffffffffffffffffff1673ffffffffffffffffffffffffffffffffffffffff1614159050919050565b816004600083815260200190815260200160002060006101000a81548173ffffffffffffffffffffffffffffffffffffffff021916908373ffffffffffffffffffffffffffffffffffffffff160217905550808273ffffffffffffffffffffffffffffffffffffffff166118aa8361117c565b73ffffffffffffffffffffffffffffffffffffffff167f8c5be1e5ebec7d5bd14f71427d1e84f3dd0314c0f7b2291e5b200ac8c7c3b92560405160405180910390a45050565b61190a82826040518060200160405280600081525061213f565b5050565b6000611919826117cb565b611958576040517f08c379a000000000000000000000000000000000000000000000000000000000815260040161194f90613b48565b60405180910390fd5b60006119638361117c565b90508073ffffffffffffffffffffffffffffffffffffffff168473ffffffffffffffffffffffffffffffffffffffff1614806119d257508373ffffffffffffffffffffffffffffffffffffffff166119ba846108ac565b73ffffffffffffffffffffffffffffffffffffffff16145b806119e357506119e28185611555565b5b91505092915050565b8273ffffffffffffffffffffffffffffffffffffffff16611a0c8261117c565b73ffffffffffffffffffffffffffffffffffffffff1614611a62576040517f08c379a0000000000000000000000000000000000000000000000000000000008152600401611a5990613bda565b60405180910390fd5b600073ffffffffffffffffffffffffffffffffffffffff168273ffffffffffffffffffffffffffffffffffffffff161415611ad2576040517f08c379a0000000000000000000000000000000000000000000000000000000008152600401611ac990613c6c565b60405180910390fd5b611add83838361219a565b611ae8600082611837565b6001600360008573ffffffffffffffffffffffffffffffffffffffff1673ffffffffffffffffffffffffffffffffffffffff1681526020019081526020016000206000828254611b389190613c8c565b925050819055506001600360008473ffffffffffffffffffffffffffffffffffffffff1673ffffffffffffffffffffffffffffffffffffffff1681526020019081526020016000206000828254611b8f9190612fce565b92505081905550816002600083815260200190815260200160002060006101000a81548173ffffffffffffffffffffffffffffffffffffffff021916908373ffffffffffffffffffffffffffffffffffffffff160217905550808273ffffffffffffffffffffffffffffffffffffffff168473ffffffffffffffffffffffffffffffffffffffff167fddf252ad1be2c89b69c2b068fc378daa952ba7f163c4a11628f55a4df523b3ef60405160405180910390a4611c4e8383836122ae565b505050565b6000600a60009054906101000a900473ffffffffffffffffffffffffffffffffffffffff16905081600a60006101000a81548173ffffffffffffffffffffffffffffffffffffffff021916908373ffffffffffffffffffffffffffffffffffffffff1602179055508173ffffffffffffffffffffffffffffffffffffffff168173ffffffffffffffffffffffffffffffffffffffff167f8be0079c531659141344cd1fd0a4f28419497f9722a3daafe3b4186f6b6457e060405160405180910390a35050565b8173ffffffffffffffffffffffffffffffffffffffff168373ffffffffffffffffffffffffffffffffffffffff161415611d88576040517f08c379a0000000000000000000000000000000000000000000000000000000008152600401611d7f90613d0c565b60405180910390fd5b80600560008573ffffffffffffffffffffffffffffffffffffffff1673ffffffffffffffffffffffffffffffffffffffff16815260200190815260200160002060008473ffffffffffffffffffffffffffffffffffffffff1673ffffffffffffffffffffffffffffffffffffffff16815260200190815260200160002060006101000a81548160ff0219169083151502179055508173ffffffffffffffffffffffffffffffffffffffff168373ffffffffffffffffffffffffffffffffffffffff167f17307eab39ab6107e8899845ad3d59bd9653f200f220920489ca2b5937696c3183604051611e7991906129f7565b60405180910390a3505050565b611e918484846119ec565b611e9d848484846122b3565b611edc576040517f08c379a0000000000000000000000000000000000000000000000000000000008152600401611ed390613d9e565b60405180910390fd5b50505050565b6060600b8054611ef190613053565b80601f0160208091040260200160405190810160405280929190818152602001828054611f1d90613053565b8015611f6a5780601f10611f3f57610100808354040283529160200191611f6a565b820191906000526020600020905b815481529060010190602001808311611f4d57829003601f168201915b5050505050905090565b60606000821415611fbc576040518060400160405280600181526020017f300000000000000000000000000000000000000000000000000000000000000081525090506120d0565b600082905060005b60008214611fee578080611fd790613dbe565b915050600a82611fe79190613e36565b9150611fc4565b60008167ffffffffffffffff81111561200a57612009612d45565b5b6040519080825280601f01601f19166020018201604052801561203c5781602001600182028036833780820191505090505b5090505b600085146120c9576001826120559190613c8c565b9150600a856120649190613e67565b60306120709190612fce565b60f81b81838151811061208657612085613653565b5b60200101907effffffffffffffffffffffffffffffffffffffffffffffffffffffffffffff1916908160001a905350600a856120c29190613e36565b9450612040565b8093505050505b919050565b60007f01ffc9a7000000000000000000000000000000000000000000000000000000007bffffffffffffffffffffffffffffffffffffffffffffffffffffffff1916827bffffffffffffffffffffffffffffffffffffffffffffffffffffffff1916149050919050565b612149838361243b565b61215660008484846122b3565b612195576040517f08c379a000000000000000000000000000000000000000000000000000000000815260040161218c90613d9e565b60405180910390fd5b505050565b6121a5838383612615565b600073ffffffffffffffffffffffffffffffffffffffff168373ffffffffffffffffffffffffffffffffffffffff1614156121e8576121e38161261a565b612227565b8173ffffffffffffffffffffffffffffffffffffffff168373ffffffffffffffffffffffffffffffffffffffff1614612226576122258382612663565b5b5b600073ffffffffffffffffffffffffffffffffffffffff168273ffffffffffffffffffffffffffffffffffffffff16141561226a57612265816127d0565b6122a9565b8273ffffffffffffffffffffffffffffffffffffffff168273ffffffffffffffffffffffffffffffffffffffff16146122a8576122a782826128a1565b5b5b505050565b505050565b60006122d48473ffffffffffffffffffffffffffffffffffffffff16612920565b1561242e578373ffffffffffffffffffffffffffffffffffffffff1663150b7a026122fd6117c3565b8786866040518563ffffffff1660e01b815260040161231f9493929190613eed565b6020604051808303816000875af192505050801561235b57506040513d601f19601f820116820180604052508101906123589190613f4e565b60015b6123de573d806000811461238b576040519150601f19603f3d011682016040523d82523d6000602084013e612390565b606091505b506000815114156123d6576040517f08c379a00000000000000000000000000000000000000000000000000000000081526004016123cd90613d9e565b60405180910390fd5b805181602001fd5b63150b7a0260e01b7bffffffffffffffffffffffffffffffffffffffffffffffffffffffff1916817bffffffffffffffffffffffffffffffffffffffffffffffffffffffff191614915050612433565b600190505b949350505050565b600073ffffffffffffffffffffffffffffffffffffffff168273ffffffffffffffffffffffffffffffffffffffff1614156124ab576040517f08c379a00000000000000000000000000000000000000000000000000000000081526004016124a290613fc7565b60405180910390fd5b6124b4816117cb565b156124f4576040517f08c379a00000000000000000000000000000000000000000000000000000000081526004016124eb90614033565b60405180910390fd5b6125006000838361219a565b6001600360008473ffffffffffffffffffffffffffffffffffffffff1673ffffffffffffffffffffffffffffffffffffffff16815260200190815260200160002060008282546125509190612fce565b92505081905550816002600083815260200190815260200160002060006101000a81548173ffffffffffffffffffffffffffffffffffffffff021916908373ffffffffffffffffffffffffffffffffffffffff160217905550808273ffffffffffffffffffffffffffffffffffffffff16600073ffffffffffffffffffffffffffffffffffffffff167fddf252ad1be2c89b69c2b068fc378daa952ba7f163c4a11628f55a4df523b3ef60405160405180910390a4612611600083836122ae565b5050565b505050565b6008805490506009600083815260200190815260200160002081905550600881908060018154018082558091505060019003906000526020600020016000909190919091505550565b600060016126708461122e565b61267a9190613c8c565b905060006007600084815260200190815260200160002054905081811461275f576000600660008673ffffffffffffffffffffffffffffffffffffffff1673ffffffffffffffffffffffffffffffffffffffff168152602001908152602001600020600084815260200190815260200160002054905080600660008773ffffffffffffffffffffffffffffffffffffffff1673ffffffffffffffffffffffffffffffffffffffff168152602001908152602001600020600084815260200190815260200160002081905550816007600083815260200190815260200160002081905550505b6007600084815260200190815260200160002060009055600660008573ffffffffffffffffffffffffffffffffffffffff1673ffffffffffffffffffffffffffffffffffffffff16815260200190815260200160002060008381526020019081526020016000206000905550505050565b600060016008805490506127e49190613c8c565b905060006009600084815260200190815260200160002054905060006008838154811061281457612813613653565b5b90600052602060002001549050806008838154811061283657612835613653565b5b90600052602060002001819055508160096000838152602001908152602001600020819055506009600085815260200190815260200160002060009055600880548061288557612884614053565b5b6001900381819060005260206000200160009055905550505050565b60006128ac8361122e565b905081600660008573ffffffffffffffffffffffffffffffffffffffff1673ffffffffffffffffffffffffffffffffffffffff168152602001908152602001600020600083815260200190815260200160002081905550806007600084815260200190815260200160002081905550505050565b6000808273ffffffffffffffffffffffffffffffffffffffff163b119050919050565b6000604051905090565b600080fd5b600080fd5b60007fffffffff0000000000000000000000000000000000000000000000000000000082169050919050565b61298c81612957565b811461299757600080fd5b50565b6000813590506129a981612983565b92915050565b6000602082840312156129c5576129c461294d565b5b60006129d38482850161299a565b91505092915050565b60008115159050919050565b6129f1816129dc565b82525050565b6000602082019050612a0c60008301846129e8565b92915050565b600081519050919050565b600082825260208201905092915050565b60005b83811015612a4c578082015181840152602081019050612a31565b83811115612a5b576000848401525b50505050565b6000601f19601f8301169050919050565b6000612a7d82612a12565b612a878185612a1d565b9350612a97818560208601612a2e565b612aa081612a61565b840191505092915050565b60006020820190508181036000830152612ac58184612a72565b905092915050565b6000819050919050565b612ae081612acd565b8114612aeb57600080fd5b50565b600081359050612afd81612ad7565b92915050565b600060208284031215612b1957612b1861294d565b5b6000612b2784828501612aee565b91505092915050565b600073ffffffffffffffffffffffffffffffffffffffff82169050919050565b6000612b5b82612b30565b9050919050565b612b6b81612b50565b82525050565b6000602082019050612b866000830184612b62565b92915050565b612b9581612b50565b8114612ba057600080fd5b50565b600081359050612bb281612b8c565b92915050565b60008060408385031215612bcf57612bce61294d565b5b6000612bdd85828601612ba3565b9250506020612bee85828601612aee565b9150509250929050565b612c01816129dc565b8114612c0c57600080fd5b50565b600081359050612c1e81612bf8565b92915050565b600060208284031215612c3a57612c3961294d565b5b6000612c4884828501612c0f565b91505092915050565b612c5a81612acd565b82525050565b6000602082019050612c756000830184612c51565b92915050565b600080600060608486031215612c9457612c9361294d565b5b6000612ca286828701612ba3565b9350506020612cb386828701612ba3565b9250506040612cc486828701612aee565b9150509250925092565b600060208284031215612ce457612ce361294d565b5b6000612cf284828501612ba3565b91505092915050565b60008060408385031215612d1257612d1161294d565b5b6000612d2085828601612ba3565b9250506020612d3185828601612c0f565b9150509250929050565b600080fd5b600080fd5b7f4e487b7100000000000000000000000000000000000000000000000000000000600052604160045260246000fd5b612d7d82612a61565b810181811067ffffffffffffffff82111715612d9c57612d9b612d45565b5b80604052505050565b6000612daf612943565b9050612dbb8282612d74565b919050565b600067ffffffffffffffff821115612ddb57612dda612d45565b5b612de482612a61565b9050602081019050919050565b82818337600083830152505050565b6000612e13612e0e84612dc0565b612da5565b905082815260208101848484011115612e2f57612e2e612d40565b5b612e3a848285612df1565b509392505050565b600082601f830112612e5757612e56612d3b565b5b8135612e67848260208601612e00565b91505092915050565b60008060008060808587031215612e8a57612e8961294d565b5b6000612e9887828801612ba3565b9450506020612ea987828801612ba3565b9350506040612eba87828801612aee565b925050606085013567ffffffffffffffff811115612edb57612eda612952565b5b612ee787828801612e42565b91505092959194509250565b60008060408385031215612f0a57612f0961294d565b5b6000612f1885828601612ba3565b9250506020612f2985828601612ba3565b9150509250929050565b7f4f776e61626c653a2063616c6c6572206973206e6f7420746865206f776e6572600082015250565b6000612f69602083612a1d565b9150612f7482612f33565b602082019050919050565b60006020820190508181036000830152612f9881612f5c565b9050919050565b7f4e487b7100000000000000000000000000000000000000000000000000000000600052601160045260246000fd5b6000612fd982612acd565b9150612fe483612acd565b9250827fffffffffffffffffffffffffffffffffffffffffffffffffffffffffffffffff0382111561301957613018612f9f565b5b828201905092915050565b7f4e487b7100000000000000000000000000000000000000000000000000000000600052602260045260246000fd5b6000600282049050600182168061306b57607f821691505b6020821081141561307f5761307e613024565b5b50919050565b7f4552433732313a20617070726f76656420717565727920666f72206e6f6e657860008201527f697374656e7420746f6b656e0000000000000000000000000000000000000000602082015250565b60006130e1602c83612a1d565b91506130ec82613085565b604082019050919050565b60006020820190508181036000830152613110816130d4565b9050919050565b7f4552433732313a20617070726f76616c20746f2063757272656e74206f776e6560008201527f7200000000000000000000000000000000000000000000000000000000000000602082015250565b6000613173602183612a1d565b915061317e82613117565b604082019050919050565b600060208201905081810360008301526131a281613166565b9050919050565b7f4552433732313a20617070726f76652063616c6c6572206973206e6f74206f7760008201527f6e6572206e6f7220617070726f76656420666f7220616c6c0000000000000000602082015250565b6000613205603883612a1d565b9150613210826131a9565b604082019050919050565b60006020820190508181036000830152613234816131f8565b9050919050565b7f436f6e74726163742063757272656e746c792070617573656400000000000000600082015250565b6000613271601983612a1d565b915061327c8261323b565b602082019050919050565b600060208201905081810360008301526132a081613264565b9050919050565b7f50726573616c6520686173206e6f7420656e6465642079657400000000000000600082015250565b60006132dd601983612a1d565b91506132e8826132a7565b602082019050919050565b6000602082019050818103600083015261330c816132d0565b9050919050565b7f457863656564206d6178696d756d20437970746f204465767320737570706c79600082015250565b6000613349602083612a1d565b915061335482613313565b602082019050919050565b600060208201905081810360008301526133788161333c565b9050919050565b7f45746865722073656e74206973206e6f7420636f727265637400000000000000600082015250565b60006133b5601983612a1d565b91506133c08261337f565b602082019050919050565b600060208201905081810360008301526133e4816133a8565b9050919050565b7f4552433732313a207472616e736665722063616c6c6572206973206e6f74206f60008201527f776e6572206e6f7220617070726f766564000000000000000000000000000000602082015250565b6000613447603183612a1d565b9150613452826133eb565b604082019050919050565b600060208201905081810360008301526134768161343a565b9050919050565b7f455243373231456e756d657261626c653a206f776e657220696e646578206f7560008201527f74206f6620626f756e6473000000000000000000000000000000000000000000602082015250565b60006134d9602b83612a1d565b91506134e48261347d565b604082019050919050565b60006020820190508181036000830152613508816134cc565b9050919050565b600081905092915050565b50565b600061352a60008361350f565b91506135358261351a565b600082019050919050565b600061354b8261351d565b9150819050919050565b7f4661696c656420746f2073656e64204574686572000000000000000000000000600082015250565b600061358b601483612a1d565b915061359682613555565b602082019050919050565b600060208201905081810360008301526135ba8161357e565b9050919050565b7f455243373231456e756d657261626c653a20676c6f62616c20696e646578206f60008201527f7574206f6620626f756e64730000000000000000000000000000000000000000602082015250565b600061361d602c83612a1d565b9150613628826135c1565b604082019050919050565b6000602082019050818103600083015261364c81613610565b9050919050565b7f4e487b7100000000000000000000000000000000000000000000000000000000600052603260045260246000fd5b7f50726573616c65206973206e6f742072756e6e696e6700000000000000000000600082015250565b60006136b8601683612a1d565b91506136c382613682565b602082019050919050565b600060208201905081810360008301526136e7816136ab565b9050919050565b6000815190506136fd81612bf8565b92915050565b6000602082840312156137195761371861294d565b5b6000613727848285016136ee565b91505092915050565b7f596f7520617265206e6f742077686974656c6973746564000000000000000000600082015250565b6000613766601783612a1d565b915061377182613730565b602082019050919050565b6000602082019050818103600083015261379581613759565b9050919050565b7f4578636565646564206d6178696d756d20437970746f2044657673207375707060008201527f6c79000000000000000000000000000000000000000000000000000000000000602082015250565b60006137f8602283612a1d565b91506138038261379c565b604082019050919050565b60006020820190508181036000830152613827816137eb565b9050919050565b7f4552433732313a206f776e657220717565727920666f72206e6f6e657869737460008201527f656e7420746f6b656e0000000000000000000000000000000000000000000000602082015250565b600061388a602983612a1d565b91506138958261382e565b604082019050919050565b600060208201905081810360008301526138b98161387d565b9050919050565b7f4552433732313a2062616c616e636520717565727920666f7220746865207a6560008201527f726f206164647265737300000000000000000000000000000000000000000000602082015250565b600061391c602a83612a1d565b9150613927826138c0565b604082019050919050565b6000602082019050818103600083015261394b8161390f565b9050919050565b7f4552433732314d657461646174613a2055524920717565727920666f72206e6f60008201527f6e6578697374656e7420746f6b656e0000000000000000000000000000000000602082015250565b60006139ae602f83612a1d565b91506139b982613952565b604082019050919050565b600060208201905081810360008301526139dd816139a1565b9050919050565b600081905092915050565b60006139fa82612a12565b613a0481856139e4565b9350613a14818560208601612a2e565b80840191505092915050565b6000613a2c82856139ef565b9150613a3882846139ef565b91508190509392505050565b7f4f776e61626c653a206e6577206f776e657220697320746865207a65726f206160008201527f6464726573730000000000000000000000000000000000000000000000000000602082015250565b6000613aa0602683612a1d565b9150613aab82613a44565b604082019050919050565b60006020820190508181036000830152613acf81613a93565b9050919050565b7f4552433732313a206f70657261746f7220717565727920666f72206e6f6e657860008201527f697374656e7420746f6b656e0000000000000000000000000000000000000000602082015250565b6000613b32602c83612a1d565b9150613b3d82613ad6565b604082019050919050565b60006020820190508181036000830152613b6181613b25565b9050919050565b7f4552433732313a207472616e736665722066726f6d20696e636f72726563742060008201527f6f776e6572000000000000000000000000000000000000000000000000000000602082015250565b6000613bc4602583612a1d565b9150613bcf82613b68565b604082019050919050565b60006020820190508181036000830152613bf381613bb7565b9050919050565b7f4552433732313a207472616e7366657220746f20746865207a65726f2061646460008201527f7265737300000000000000000000000000000000000000000000000000000000602082015250565b6000613c56602483612a1d565b9150613c6182613bfa565b604082019050919050565b60006020820190508181036000830152613c8581613c49565b9050919050565b6000613c9782612acd565b9150613ca283612acd565b925082821015613cb557613cb4612f9f565b5b828203905092915050565b7f4552433732313a20617070726f766520746f2063616c6c657200000000000000600082015250565b6000613cf6601983612a1d565b9150613d0182613cc0565b602082019050919050565b60006020820190508181036000830152613d2581613ce9565b9050919050565b7f4552433732313a207472616e7366657220746f206e6f6e20455243373231526560008201527f63656976657220696d706c656d656e7465720000000000000000000000000000602082015250565b6000613d88603283612a1d565b9150613d9382613d2c565b604082019050919050565b60006020820190508181036000830152613db781613d7b565b9050919050565b6000613dc982612acd565b91507fffffffffffffffffffffffffffffffffffffffffffffffffffffffffffffffff821415613dfc57613dfb612f9f565b5b600182019050919050565b7f4e487b7100000000000000000000000000000000000000000000000000000000600052601260045260246000fd5b6000613e4182612acd565b9150613e4c83612acd565b925082613e5c57613e5b613e07565b5b828204905092915050565b6000613e7282612acd565b9150613e7d83612acd565b925082613e8d57613e8c613e07565b5b828206905092915050565b600081519050919050565b600082825260208201905092915050565b6000613ebf82613e98565b613ec98185613ea3565b9350613ed9818560208601612a2e565b613ee281612a61565b840191505092915050565b6000608082019050613f026000830187612b62565b613f0f6020830186612b62565b613f1c6040830185612c51565b8181036060830152613f2e8184613eb4565b905095945050505050565b600081519050613f4881612983565b92915050565b600060208284031215613f6457613f6361294d565b5b6000613f7284828501613f39565b91505092915050565b7f4552433732313a206d696e7420746f20746865207a65726f2061646472657373600082015250565b6000613fb1602083612a1d565b9150613fbc82613f7b565b602082019050919050565b60006020820190508181036000830152613fe081613fa4565b9050919050565b7f4552433732313a20746f6b656e20616c7265616479206d696e74656400000000600082015250565b600061401d601c83612a1d565b915061402882613fe7565b602082019050919050565b6000602082019050818103600083015261404c81614010565b9050919050565b7f4e487b7100000000000000000000000000000000000000000000000000000000600052603160045260246000fdfea2646970667358221220a1040f34700d6c156c8fa2f39eacd2b44d49add262b44f52bcc843a90058a81764736f6c634300080a0033",
  "linkReferences": {},
  "deployedLinkReferences": {}
}