{
  "_format": "hh-sol-artifact-1",
  "contractName": "DAO",
  "sourceName": "contracts/DAO/DAO.sol",
  "abi": [
    {
      "inputs": [
        {
          "internalType": "address",
          "name": "_nftMarketplace",
          "type": "address"
        },
        {
          "internalType": "address",
          "name": "_cryptoDevsNFT",
          "type": "address"
        }
      ],
      "stateMutability": "payable",
      "type": "constructor"
    },
    {
      "anonymous": false,
      "inputs": [
        {
          "indexed": true,
          "internalType": "address",
          "name": "previousOwner",
          "type": "address"
        },
        {
          "indexed": true,
          "internalType": "address",
          "name": "newOwner",
          "type": "address"
        }
      ],
      "name": "OwnershipTransferred",
      "type": "event"
    },
    {
      "inputs": [
        {
          "internalType": "uint256",
          "name": "_nftTokenId",
          "type": "uint256"
        }
      ],
      "name": "createProposal",
      "outputs": [
        {
          "internalType": "uint256",
          "name": "",
          "type": "uint256"
        }
      ],
      "stateMutability": "nonpayable",
      "type": "function"
    },
    {
      "inputs": [
        {
          "internalType": "uint256",
          "name": "proposalIndex",
          "type": "uint256"
        }
      ],
      "name": "executeProposal",
      "outputs": [],
      "stateMutability": "nonpayable",
      "type": "function"
    },
    {
      "inputs": [],
      "name": "numProposals",
      "outputs": [
        {
          "internalType": "uint256",
          "name": "",
          "type": "uint256"
        }
      ],
      "stateMutability": "view",
      "type": "function"
    },
    {
      "inputs": [],
      "name": "owner",
      "outputs": [
        {
          "internalType": "address",
          "name": "",
          "type": "address"
        }
      ],
      "stateMutability": "view",
      "type": "function"
    },
    {
      "inputs": [
        {
          "internalType": "uint256",
          "name": "",
          "type": "uint256"
        }
      ],
      "name": "proposals",
      "outputs": [
        {
          "internalType": "uint256",
          "name": "nftTokenId",
          "type": "uint256"
        },
        {
          "internalType": "uint256",
          "name": "deadline",
          "type": "uint256"
        },
        {
          "internalType": "uint256",
          "name": "yayVotes",
          "type": "uint256"
        },
        {
          "internalType": "uint256",
          "name": "nayVotes",
          "type": "uint256"
        },
        {
          "internalType": "bool",
          "name": "executed",
          "type": "bool"
        }
      ],
      "stateMutability": "view",
      "type": "function"
    },
    {
      "inputs": [],
      "name": "renounceOwnership",
      "outputs": [],
      "stateMutability": "nonpayable",
      "type": "function"
    },
    {
      "inputs": [
        {
          "internalType": "address",
          "name": "newOwner",
          "type": "address"
        }
      ],
      "name": "transferOwnership",
      "outputs": [],
      "stateMutability": "nonpayable",
      "type": "function"
    },
    {
      "inputs": [
        {
          "internalType": "uint256",
          "name": "proposalIndex",
          "type": "uint256"
        },
        {
          "internalType": "enum DAO.Vote",
          "name": "vote",
          "type": "uint8"
        }
      ],
      "name": "voteOnProposal",
      "outputs": [],
      "stateMutability": "nonpayable",
      "type": "function"
    },
    {
      "inputs": [],
      "name": "withdrawEther",
      "outputs": [],
      "stateMutability": "nonpayable",
      "type": "function"
    }
  ],
  "bytecode": "0x60806040526040516200191b3803806200191b833981810160405281019062000029919062000209565b620000496200003d620000d360201b60201c565b620000db60201b60201c565b81600260006101000a81548173ffffffffffffffffffffffffffffffffffffffff021916908373ffffffffffffffffffffffffffffffffffffffff16021790555080600160006101000a81548173ffffffffffffffffffffffffffffffffffffffff021916908373ffffffffffffffffffffffffffffffffffffffff160217905550505062000250565b600033905090565b60008060009054906101000a900473ffffffffffffffffffffffffffffffffffffffff169050816000806101000a81548173ffffffffffffffffffffffffffffffffffffffff021916908373ffffffffffffffffffffffffffffffffffffffff1602179055508173ffffffffffffffffffffffffffffffffffffffff168173ffffffffffffffffffffffffffffffffffffffff167f8be0079c531659141344cd1fd0a4f28419497f9722a3daafe3b4186f6b6457e060405160405180910390a35050565b600080fd5b600073ffffffffffffffffffffffffffffffffffffffff82169050919050565b6000620001d182620001a4565b9050919050565b620001e381620001c4565b8114620001ef57600080fd5b50565b6000815190506200020381620001d8565b92915050565b600080604083850312156200022357620002226200019f565b5b60006200023385828601620001f2565b92505060206200024685828601620001f2565b9150509250929050565b6116bb80620002606000396000f3fe608060405234801561001057600080fd5b50600436106100935760003560e01c8063715018a611610066578063715018a6146101365780637362377b146101405780638da5cb5b1461014a578063efafb22e14610168578063f2fde38b1461018457610093565b8063013cf08b146100985780630d61b519146100cc578063400e3949146100e85780635a43dc0014610106575b600080fd5b6100b260048036038101906100ad9190610eae565b6101a0565b6040516100c3959493929190610f05565b60405180910390f35b6100e660048036038101906100e19190610eae565b6101e3565b005b6100f061053a565b6040516100fd9190610f58565b60405180910390f35b610120600480360381019061011b9190610eae565b610540565b60405161012d9190610f58565b60405180910390f35b61013e610761565b005b6101486107e9565b005b6101526108b5565b60405161015f9190610fb4565b60405180910390f35b610182600480360381019061017d9190610ff4565b6108de565b005b61019e60048036038101906101999190611060565b610caf565b005b60036020528060005260406000206000915090508060000154908060010154908060020154908060030154908060040160009054906101000a900460ff16905085565b6000600160009054906101000a900473ffffffffffffffffffffffffffffffffffffffff1673ffffffffffffffffffffffffffffffffffffffff166370a08231336040518263ffffffff1660e01b81526004016102409190610fb4565b602060405180830381865afa15801561025d573d6000803e3d6000fd5b505050506040513d601f19601f8201168201806040525081019061028191906110a2565b116102c1576040517f08c379a00000000000000000000000000000000000000000000000000000000081526004016102b89061112c565b60405180910390fd5b80426003600083815260200190815260200160002060010154111561031b576040517f08c379a000000000000000000000000000000000000000000000000000000000815260040161031290611198565b60405180910390fd5b600015156003600083815260200190815260200160002060040160009054906101000a900460ff16151514610385576040517f08c379a000000000000000000000000000000000000000000000000000000000815260040161037c90611204565b60405180910390fd5b6000600360008481526020019081526020016000209050806003015481600201541115610518576000600260009054906101000a900473ffffffffffffffffffffffffffffffffffffffff1673ffffffffffffffffffffffffffffffffffffffff166398d5fdca6040518163ffffffff1660e01b8152600401602060405180830381865afa15801561041b573d6000803e3d6000fd5b505050506040513d601f19601f8201168201806040525081019061043f91906110a2565b905080471015610484576040517f08c379a000000000000000000000000000000000000000000000000000000000815260040161047b90611270565b60405180910390fd5b600260009054906101000a900473ffffffffffffffffffffffffffffffffffffffff1673ffffffffffffffffffffffffffffffffffffffff1663efef39a18284600001546040518363ffffffff1660e01b81526004016104e49190610f58565b6000604051808303818588803b1580156104fd57600080fd5b505af1158015610511573d6000803e3d6000fd5b5050505050505b60018160040160006101000a81548160ff021916908315150217905550505050565b60045481565b600080600160009054906101000a900473ffffffffffffffffffffffffffffffffffffffff1673ffffffffffffffffffffffffffffffffffffffff166370a08231336040518263ffffffff1660e01b815260040161059e9190610fb4565b602060405180830381865afa1580156105bb573d6000803e3d6000fd5b505050506040513d601f19601f820116820180604052508101906105df91906110a2565b1161061f576040517f08c379a00000000000000000000000000000000000000000000000000000000081526004016106169061112c565b60405180910390fd5b600260009054906101000a900473ffffffffffffffffffffffffffffffffffffffff1673ffffffffffffffffffffffffffffffffffffffff166396e494e8836040518263ffffffff1660e01b815260040161067a9190610f58565b602060405180830381865afa158015610697573d6000803e3d6000fd5b505050506040513d601f19601f820116820180604052508101906106bb91906112bc565b6106fa576040517f08c379a00000000000000000000000000000000000000000000000000000000081526004016106f190611335565b60405180910390fd5b6000600360006004548152602001908152602001600020905082816000018190555061012c4261072a9190611384565b816001018190555060046000815480929190610745906113da565b919050555060016004546107599190611423565b915050919050565b610769610da7565b73ffffffffffffffffffffffffffffffffffffffff166107876108b5565b73ffffffffffffffffffffffffffffffffffffffff16146107dd576040517f08c379a00000000000000000000000000000000000000000000000000000000081526004016107d4906114a3565b60405180910390fd5b6107e76000610daf565b565b6107f1610da7565b73ffffffffffffffffffffffffffffffffffffffff1661080f6108b5565b73ffffffffffffffffffffffffffffffffffffffff1614610865576040517f08c379a000000000000000000000000000000000000000000000000000000000815260040161085c906114a3565b60405180910390fd5b61086d6108b5565b73ffffffffffffffffffffffffffffffffffffffff166108fc479081150290604051600060405180830381858888f193505050501580156108b2573d6000803e3d6000fd5b50565b60008060009054906101000a900473ffffffffffffffffffffffffffffffffffffffff16905090565b6000600160009054906101000a900473ffffffffffffffffffffffffffffffffffffffff1673ffffffffffffffffffffffffffffffffffffffff166370a08231336040518263ffffffff1660e01b815260040161093b9190610fb4565b602060405180830381865afa158015610958573d6000803e3d6000fd5b505050506040513d601f19601f8201168201806040525081019061097c91906110a2565b116109bc576040517f08c379a00000000000000000000000000000000000000000000000000000000081526004016109b39061112c565b60405180910390fd5b8142600360008381526020019081526020016000206001015411610a15576040517f08c379a0000000000000000000000000000000000000000000000000000000008152600401610a0c9061150f565b60405180910390fd5b60006003600085815260200190815260200160002090506000600160009054906101000a900473ffffffffffffffffffffffffffffffffffffffff1673ffffffffffffffffffffffffffffffffffffffff166370a08231336040518263ffffffff1660e01b8152600401610a899190610fb4565b602060405180830381865afa158015610aa6573d6000803e3d6000fd5b505050506040513d601f19601f82011682018060405250810190610aca91906110a2565b90506000805b82811015610bfa576000600160009054906101000a900473ffffffffffffffffffffffffffffffffffffffff1673ffffffffffffffffffffffffffffffffffffffff16632f745c5933846040518363ffffffff1660e01b8152600401610b3792919061152f565b602060405180830381865afa158015610b54573d6000803e3d6000fd5b505050506040513d601f19601f82011682018060405250810190610b7891906110a2565b90506000151585600501600083815260200190815260200160002060009054906101000a900460ff1615151415610be6578280610bb4906113da565b935050600185600501600083815260200190815260200160002060006101000a81548160ff0219169083151502179055505b508080610bf2906113da565b915050610ad0565b5060008111610c3e576040517f08c379a0000000000000000000000000000000000000000000000000000000008152600401610c35906115a4565b60405180910390fd5b60006001811115610c5257610c516115c4565b5b856001811115610c6557610c646115c4565b5b1415610c8b5780836002016000828254610c7f9190611384565b92505081905550610ca7565b80836003016000828254610c9f9190611384565b925050819055505b505050505050565b610cb7610da7565b73ffffffffffffffffffffffffffffffffffffffff16610cd56108b5565b73ffffffffffffffffffffffffffffffffffffffff1614610d2b576040517f08c379a0000000000000000000000000000000000000000000000000000000008152600401610d22906114a3565b60405180910390fd5b600073ffffffffffffffffffffffffffffffffffffffff168173ffffffffffffffffffffffffffffffffffffffff161415610d9b576040517f08c379a0000000000000000000000000000000000000000000000000000000008152600401610d9290611665565b60405180910390fd5b610da481610daf565b50565b600033905090565b60008060009054906101000a900473ffffffffffffffffffffffffffffffffffffffff169050816000806101000a81548173ffffffffffffffffffffffffffffffffffffffff021916908373ffffffffffffffffffffffffffffffffffffffff1602179055508173ffffffffffffffffffffffffffffffffffffffff168173ffffffffffffffffffffffffffffffffffffffff167f8be0079c531659141344cd1fd0a4f28419497f9722a3daafe3b4186f6b6457e060405160405180910390a35050565b600080fd5b6000819050919050565b610e8b81610e78565b8114610e9657600080fd5b50565b600081359050610ea881610e82565b92915050565b600060208284031215610ec457610ec3610e73565b5b6000610ed284828501610e99565b91505092915050565b610ee481610e78565b82525050565b60008115159050919050565b610eff81610eea565b82525050565b600060a082019050610f1a6000830188610edb565b610f276020830187610edb565b610f346040830186610edb565b610f416060830185610edb565b610f4e6080830184610ef6565b9695505050505050565b6000602082019050610f6d6000830184610edb565b92915050565b600073ffffffffffffffffffffffffffffffffffffffff82169050919050565b6000610f9e82610f73565b9050919050565b610fae81610f93565b82525050565b6000602082019050610fc96000830184610fa5565b92915050565b60028110610fdc57600080fd5b50565b600081359050610fee81610fcf565b92915050565b6000806040838503121561100b5761100a610e73565b5b600061101985828601610e99565b925050602061102a85828601610fdf565b9150509250929050565b61103d81610f93565b811461104857600080fd5b50565b60008135905061105a81611034565b92915050565b60006020828403121561107657611075610e73565b5b60006110848482850161104b565b91505092915050565b60008151905061109c81610e82565b92915050565b6000602082840312156110b8576110b7610e73565b5b60006110c68482850161108d565b91505092915050565b600082825260208201905092915050565b7f4e4f545f415f44414f5f4d454d42455200000000000000000000000000000000600082015250565b60006111166010836110cf565b9150611121826110e0565b602082019050919050565b6000602082019050818103600083015261114581611109565b9050919050565b7f444541444c494e455f4e4f545f45584345454445440000000000000000000000600082015250565b60006111826015836110cf565b915061118d8261114c565b602082019050919050565b600060208201905081810360008301526111b181611175565b9050919050565b7f50524f504f53414c5f414c52454144595f455845435554454400000000000000600082015250565b60006111ee6019836110cf565b91506111f9826111b8565b602082019050919050565b6000602082019050818103600083015261121d816111e1565b9050919050565b7f4e4f545f454e4f5547485f46554e445300000000000000000000000000000000600082015250565b600061125a6010836110cf565b915061126582611224565b602082019050919050565b600060208201905081810360008301526112898161124d565b9050919050565b61129981610eea565b81146112a457600080fd5b50565b6000815190506112b681611290565b92915050565b6000602082840312156112d2576112d1610e73565b5b60006112e0848285016112a7565b91505092915050565b7f4e46545f4e4f545f464f525f53414c4500000000000000000000000000000000600082015250565b600061131f6010836110cf565b915061132a826112e9565b602082019050919050565b6000602082019050818103600083015261134e81611312565b9050919050565b7f4e487b7100000000000000000000000000000000000000000000000000000000600052601160045260246000fd5b600061138f82610e78565b915061139a83610e78565b9250827fffffffffffffffffffffffffffffffffffffffffffffffffffffffffffffffff038211156113cf576113ce611355565b5b828201905092915050565b60006113e582610e78565b91507fffffffffffffffffffffffffffffffffffffffffffffffffffffffffffffffff82141561141857611417611355565b5b600182019050919050565b600061142e82610e78565b915061143983610e78565b92508282101561144c5761144b611355565b5b828203905092915050565b7f4f776e61626c653a2063616c6c6572206973206e6f7420746865206f776e6572600082015250565b600061148d6020836110cf565b915061149882611457565b602082019050919050565b600060208201905081810360008301526114bc81611480565b9050919050565b7f444541444c494e455f4558434545444544000000000000000000000000000000600082015250565b60006114f96011836110cf565b9150611504826114c3565b602082019050919050565b60006020820190508181036000830152611528816114ec565b9050919050565b60006040820190506115446000830185610fa5565b6115516020830184610edb565b9392505050565b7f414c52454144595f564f54454400000000000000000000000000000000000000600082015250565b600061158e600d836110cf565b915061159982611558565b602082019050919050565b600060208201905081810360008301526115bd81611581565b9050919050565b7f4e487b7100000000000000000000000000000000000000000000000000000000600052602160045260246000fd5b7f4f776e61626c653a206e6577206f776e657220697320746865207a65726f206160008201527f6464726573730000000000000000000000000000000000000000000000000000602082015250565b600061164f6026836110cf565b915061165a826115f3565b604082019050919050565b6000602082019050818103600083015261167e81611642565b905091905056fea2646970667358221220d843fceaafa4ad3cd7efbc6c38574ccd3f865112281dd7b0c9f5f0ea0e3bbc6164736f6c634300080a0033",
  "linkReferences": {},
  "deployedLinkReferences": {}
}